BL51 BANKED LINKER/LOCATER V6.22.2.0                                                    06/24/2019  13:46:59  PAGE 1


BL51 BANKED LINKER/LOCATER V6.22.2.0, INVOKED BY:
C:\KEIL_V5\C51\BIN\BL51.EXE .\Output\AM2320.obj, .\Output\PUTCHAR.obj, .\Output\Common.obj, .\Output\Delay.obj, .\Output
>> \STARTUP.obj TO .\Output\AM2320 PRINT (.\LST\AM2320.m51) RAMSIZE (256) DISABLEWARNING (16)


MEMORY MODEL: SMALL


INPUT MODULES INCLUDED:
  .\Output\AM2320.obj (AM2320)
  .\Output\PUTCHAR.obj (PUTCHAR)
  .\Output\Common.obj (COMMON)
  .\Output\Delay.obj (DELAY)
  .\Output\STARTUP.obj (?C_STARTUP)
  C:\KEIL_V5\C51\LIB\C51S.LIB (?C?CLDPTR)
  C:\KEIL_V5\C51\LIB\C51S.LIB (?C?ULDIV)
  C:\KEIL_V5\C51\LIB\C51S.LIB (?C?ULCMP)
  C:\KEIL_V5\C51\LIB\C51S.LIB (?C?ULSHR)


LINK MAP OF MODULE:  .\Output\AM2320 (AM2320)


            TYPE    BASE      LENGTH    RELOCATION   SEGMENT NAME
            -----------------------------------------------------

            * * * * * * *   D A T A   M E M O R Y   * * * * * * *
            REG     0000H     0008H     ABSOLUTE     "REG BANK 0"
            DATA    0008H     0014H     UNIT         _DATA_GROUP_
            DATA    001CH     0004H     UNIT         ?DT?_INITIALUART1_TIMER3?COMMON
            BIT     0020H.0   0000H.1   UNIT         ?BI?AM2320
            BIT     0020H.1   0000H.1   UNIT         ?BI?DELAY
                    0020H.2   0000H.6                *** GAP ***
            DATA    0021H     000AH     UNIT         ?DT?AM2320
            DATA    002BH     0004H     UNIT         ?DT?_TIMER1_DELAY10MS?DELAY
            DATA    002FH     0004H     UNIT         ?DT?_TIMER2_DELAY500US?DELAY
            DATA    0033H     0004H     UNIT         ?DT?_TIMER3_DELAY100MS?DELAY
            DATA    0037H     0004H     UNIT         ?DT?_TIMER3_DELAY10US?DELAY
            IDATA   003BH     0001H     UNIT         ?STACK

            * * * * * * *   C O D E   M E M O R Y   * * * * * * *
            CODE    0000H     0003H     ABSOLUTE     
            CODE    0003H     010BH     UNIT         ?C?LIB_CODE
            CODE    010EH     00FBH     UNIT         ?PR?MAIN?AM2320
            CODE    0209H     007FH     UNIT         ?PR?AM2320_READDATA?AM2320
            CODE    0288H     0069H     UNIT         ?PR?_INITIALUART0_TIMER3?COMMON
            CODE    02F1H     0064H     UNIT         ?PR?_INITIALUART1_TIMER3?COMMON
            CODE    0355H     005FH     UNIT         ?PR?_CRC16?AM2320
            CODE    03B4H     0050H     UNIT         ?PR?_TIMER3_DELAY100MS?DELAY
            CODE    0404H     0050H     UNIT         ?PR?_TIMER3_DELAY10US?DELAY
            CODE    0454H     004EH     UNIT         ?PR?_TIMER2_DELAY500US?DELAY
            CODE    04A2H     004BH     UNIT         ?PR?_TIMER0_DELAY100US?DELAY
            CODE    04EDH     004BH     UNIT         ?PR?_TIMER0_DELAY1MS?DELAY
            CODE    0538H     004BH     UNIT         ?PR?_TIMER1_DELAY10MS?DELAY
            CODE    0583H     0039H     UNIT         ?PR?_INITIALUART0_TIMER1?COMMON
            CODE    05BCH     0035H     UNIT         ?PR?MCU_CHECKACK?AM2320
            CODE    05F1H     002CH     UNIT         ?PR?I2C_R_BYTE?AM2320
            CODE    061DH     002CH     UNIT         ?C_C51STARTUP
BL51 BANKED LINKER/LOCATER V6.22.2.0                                                  06/24/2019  13:46:59  PAGE 2


            CODE    0649H     0028H     UNIT         ?PR?_I2C_W_BYTE?AM2320
            CODE    0671H     0023H     UNIT         ?PR?_DELAY_US?AM2320
            CODE    0694H     0013H     UNIT         ?PR?MCU_SENDACK?AM2320
            CODE    06A7H     0013H     UNIT         ?PR?MCU_SENDNACK?AM2320
            CODE    06BAH     0011H     UNIT         ?PR?INIT_I2C?AM2320
            CODE    06CBH     0011H     UNIT         ?PR?I2C_START?AM2320
            CODE    06DCH     0011H     UNIT         ?PR?AM2320_WAKEUP?AM2320
            CODE    06EDH     000AH     UNIT         ?PR?I2C_STOP?AM2320
            CODE    06F7H     0008H     UNIT         ?PR?_PUTCHAR?PUTCHAR
            CODE    06FFH     0008H     UNIT         ?PR?RECEIVE_DATA_FROM_UART0?COMMON
            CODE    0707H     0008H     UNIT         ?PR?_SEND_DATA_TO_UART0?COMMON
            CODE    070FH     0008H     UNIT         ?PR?RECEIVE_DATA_FROM_UART1?COMMON
            CODE    0717H     0008H     UNIT         ?PR?_SEND_DATA_TO_UART1?COMMON



OVERLAY MAP OF MODULE:   .\Output\AM2320 (AM2320)


SEGMENT                                      DATA_GROUP 
  +--> CALLED SEGMENT                      START    LENGTH
----------------------------------------------------------
?C_C51STARTUP                              -----    -----
  +--> ?PR?MAIN?AM2320

?PR?MAIN?AM2320                            0008H    000EH
  +--> ?PR?_INITIALUART0_TIMER3?COMMON
  +--> ?PR?INIT_I2C?AM2320
  +--> ?PR?_TIMER0_DELAY1MS?DELAY
  +--> ?PR?AM2320_WAKEUP?AM2320
  +--> ?PR?AM2320_READDATA?AM2320
  +--> ?PR?_CRC16?AM2320
  +--> ?PR?_SEND_DATA_TO_UART0?COMMON

?PR?_INITIALUART0_TIMER3?COMMON            0016H    0004H

?PR?_TIMER0_DELAY1MS?DELAY                 0016H    0004H

?PR?AM2320_WAKEUP?AM2320                   -----    -----
  +--> ?PR?MCU_CHECKACK?AM2320
  +--> ?PR?_TIMER0_DELAY1MS?DELAY
  +--> ?PR?I2C_STOP?AM2320

?PR?MCU_CHECKACK?AM2320                    -----    -----
  +--> ?PR?I2C_START?AM2320
  +--> ?PR?_I2C_W_BYTE?AM2320
  +--> ?PR?_DELAY_US?AM2320

?PR?I2C_START?AM2320                       -----    -----
  +--> ?PR?_DELAY_US?AM2320

?PR?_I2C_W_BYTE?AM2320                     -----    -----
  +--> ?PR?_DELAY_US?AM2320

?PR?I2C_STOP?AM2320                        -----    -----
  +--> ?PR?_DELAY_US?AM2320

BL51 BANKED LINKER/LOCATER V6.22.2.0                                                  06/24/2019  13:46:59  PAGE 3


?PR?AM2320_READDATA?AM2320                 -----    -----
  +--> ?PR?MCU_CHECKACK?AM2320
  +--> ?PR?_I2C_W_BYTE?AM2320
  +--> ?PR?I2C_STOP?AM2320
  +--> ?PR?_TIMER0_DELAY1MS?DELAY
  +--> ?PR?I2C_START?AM2320
  +--> ?PR?_TIMER0_DELAY100US?DELAY
  +--> ?PR?I2C_R_BYTE?AM2320
  +--> ?PR?MCU_SENDACK?AM2320
  +--> ?PR?MCU_SENDNACK?AM2320

?PR?_TIMER0_DELAY100US?DELAY               0016H    0004H

?PR?I2C_R_BYTE?AM2320                      -----    -----
  +--> ?PR?MCU_SENDACK?AM2320
  +--> ?PR?_DELAY_US?AM2320

?PR?MCU_SENDACK?AM2320                     -----    -----
  +--> ?PR?_DELAY_US?AM2320

?PR?MCU_SENDNACK?AM2320                    -----    -----
  +--> ?PR?_DELAY_US?AM2320

?PR?_CRC16?AM2320                          0016H    0006H



SYMBOL TABLE OF MODULE:  .\Output\AM2320 (AM2320)

  VALUE           TYPE          NAME
  ----------------------------------

  -------         MODULE        AM2320
  C:0000H         SYMBOL        _ICE_DUMMY_
  D:00B1H         PUBLIC        P0M1
  D:00B3H         PUBLIC        P1M1
  D:00B2H         PUBLIC        P0M2
  D:0080H         PUBLIC        P0
  D:00B4H         PUBLIC        P1M2
  D:0090H         PUBLIC        P1
  B:0020H.0       PUBLIC        I2C_Reset_Flag
  D:00ACH         PUBLIC        P3M1
  D:00A0H         PUBLIC        P2
  D:00B0H         PUBLIC        P3
  D:00ADH         PUBLIC        P3M2
  D:00D8H         PUBLIC        PWMCON0
  C:05F4H         PUBLIC        I2C_R_byte
  C:0649H         PUBLIC        _I2C_W_byte
  D:00A8H         PUBLIC        IE
  D:00B8H         PUBLIC        IP
  C:0355H         PUBLIC        _crc16
  C:010EH         PUBLIC        main
  C:06DCH         PUBLIC        AM2320_Wakeup
  C:06CBH         PUBLIC        I2C_Start
  C:0209H         PUBLIC        AM2320_ReadData
  B:0090H.2       PUBLIC        P12
  D:0098H         PUBLIC        SCON
BL51 BANKED LINKER/LOCATER V6.22.2.0                                                  06/24/2019  13:46:59  PAGE 4


  C:06BAH         PUBLIC        Init_I2C
  B:0080H.5       PUBLIC        P05
  D:0088H         PUBLIC        TCON
  C:05C4H         PUBLIC        MCU_CheckAck
  D:00F8H         PUBLIC        SCON_1
  C:06EDH         PUBLIC        I2C_Stop
  C:06A7H         PUBLIC        MCU_SendNack
  D:0021H         PUBLIC        AM2320Data
  B:0090H.4       PUBLIC        SDA
  D:00E8H         PUBLIC        ADCCON0
  C:067CH         PUBLIC        _delay_us
  D:00C0H         PUBLIC        I2CON
  B:0090H.3       PUBLIC        SCL
  C:0694H         PUBLIC        MCU_SendAck
  D:00C8H         PUBLIC        T2CON
  D:00D0H         PUBLIC        PSW
  -------         PROC          INIT_I2C
  C:06BAH         LINE#         64
  C:06BAH         LINE#         65
  C:06BAH         LINE#         66
  C:06C0H         LINE#         67
  C:06C6H         LINE#         69
  C:06C8H         LINE#         70
  C:06CAH         LINE#         78
  -------         ENDPROC       INIT_I2C
  C:0675H         SYMBOL        L?0040
  -------         PROC          L?0039
  -------         ENDPROC       L?0039
  C:0675H         SYMBOL        L?0040
  -------         PROC          _DELAY_US
  D:0007H         SYMBOL        cnt
  -------         DO            
  D:0006H         SYMBOL        i
  -------         ENDDO         
  C:067CH         LINE#         82
  C:067CH         LINE#         83
  C:067CH         LINE#         85
  C:0683H         LINE#         86
  C:0684H         LINE#         87
  C:0685H         LINE#         88
  C:0686H         LINE#         89
  C:0687H         LINE#         90
  C:0688H         LINE#         91
  C:0689H         LINE#         92
  C:068AH         LINE#         93
  C:068BH         LINE#         94
  C:068CH         LINE#         95
  C:068DH         LINE#         96
  C:068EH         LINE#         97
  C:068FH         LINE#         98
  C:0690H         LINE#         99
  C:0693H         LINE#         100
  -------         ENDPROC       _DELAY_US
  -------         PROC          I2C_START
  C:06CBH         LINE#         102
  C:06CBH         LINE#         103
  C:06CBH         LINE#         104
BL51 BANKED LINKER/LOCATER V6.22.2.0                                                  06/24/2019  13:46:59  PAGE 5


  C:06CDH         LINE#         105
  C:06CFH         LINE#         106
  C:06D4H         LINE#         107
  C:06D6H         LINE#         108
  C:06D9H         LINE#         109
  C:06DBH         LINE#         110
  -------         ENDPROC       I2C_START
  -------         PROC          I2C_STOP
  C:06EDH         LINE#         112
  C:06EDH         LINE#         113
  C:06EDH         LINE#         114
  C:06EFH         LINE#         115
  C:06EFH         LINE#         116
  C:06EFH         LINE#         117
  C:06F2H         LINE#         118
  C:06F4H         LINE#         119
  -------         ENDPROC       I2C_STOP
  -------         PROC          MCU_SENDACK
  C:0694H         LINE#         122
  C:0694H         LINE#         123
  C:0694H         LINE#         124
  C:0696H         LINE#         125
  C:0696H         LINE#         126
  C:0696H         LINE#         127
  C:0699H         LINE#         128
  C:069BH         LINE#         129
  C:06A0H         LINE#         130
  C:06A2H         LINE#         131
  -------         ENDPROC       MCU_SENDACK
  -------         PROC          MCU_SENDNACK
  C:06A7H         LINE#         134
  C:06A7H         LINE#         135
  C:06A7H         LINE#         136
  C:06A9H         LINE#         137
  C:06A9H         LINE#         138
  C:06A9H         LINE#         139
  C:06ACH         LINE#         140
  C:06AEH         LINE#         141
  C:06B3H         LINE#         142
  C:06B5H         LINE#         143
  -------         ENDPROC       MCU_SENDNACK
  -------         PROC          L?0041
  -------         ENDPROC       L?0041
  -------         PROC          MCU_CHECKACK
  -------         DO            
  D:0005H         SYMBOL        ucErrTime
  -------         ENDDO         
  C:05C4H         LINE#         146
  C:05C4H         LINE#         147
  C:05C4H         LINE#         148
  C:05C6H         LINE#         149
  C:05C8H         LINE#         151
  C:05CEH         LINE#         152
  C:05D3H         LINE#         153
  C:05D5H         LINE#         155
  C:05D8H         LINE#         156
  C:05D8H         LINE#         157
BL51 BANKED LINKER/LOCATER V6.22.2.0                                                  06/24/2019  13:46:59  PAGE 6


  C:05D9H         LINE#         158
  C:05E3H         LINE#         159
  C:05E3H         LINE#         161
  C:05E3H         LINE#         162
  C:05E3H         LINE#         163
  C:05E3H         LINE#         164
  C:05E8H         LINE#         165
  C:05EAH         LINE#         167
  C:05F0H         LINE#         168
  -------         ENDPROC       MCU_CHECKACK
  -------         PROC          _I2C_W_BYTE
  D:0005H         SYMBOL        dat
  -------         DO            
  D:0004H         SYMBOL        i
  -------         ENDDO         
  C:0649H         LINE#         170
  C:064BH         LINE#         171
  C:064BH         LINE#         173
  C:0657H         LINE#         174
  C:0657H         LINE#         175
  C:0662H         LINE#         176
  C:0666H         LINE#         178
  C:0668H         LINE#         179
  C:0668H         LINE#         180
  C:0668H         LINE#         181
  C:0668H         LINE#         182
  C:066BH         LINE#         183
  C:066DH         LINE#         184
  C:0670H         LINE#         185
  -------         ENDPROC       _I2C_W_BYTE
  -------         PROC          L?0042
  -------         ENDPROC       L?0042
  -------         PROC          I2C_R_BYTE
  -------         DO            
  D:0004H         SYMBOL        i
  D:0005H         SYMBOL        tmp
  -------         ENDDO         
  C:05F4H         LINE#         187
  C:05F4H         LINE#         188
  C:05F4H         LINE#         191
  C:05FAH         LINE#         192
  C:0606H         LINE#         193
  C:0606H         LINE#         194
  C:0606H         LINE#         196
  C:0606H         LINE#         197
  C:0606H         LINE#         198
  C:0609H         LINE#         199
  C:060BH         LINE#         201
  C:0611H         LINE#         202
  C:0614H         LINE#         204
  C:061AH         LINE#         205
  C:061CH         LINE#         206
  -------         ENDPROC       I2C_R_BYTE
  -------         PROC          AM2320_WAKEUP
  C:06DCH         LINE#         209
  C:06DCH         LINE#         210
  C:06DCH         LINE#         211
BL51 BANKED LINKER/LOCATER V6.22.2.0                                                  06/24/2019  13:46:59  PAGE 7


  C:06DCH         LINE#         212
  C:06DCH         LINE#         213
  C:06DFH         LINE#         214
  C:06EAH         LINE#         215
  -------         ENDPROC       AM2320_WAKEUP
  -------         PROC          AM2320_READDATA
  C:0209H         LINE#         218
  C:0209H         LINE#         219
  C:0209H         LINE#         220
  C:0209H         LINE#         221
  C:0209H         LINE#         222
  C:020CH         LINE#         223
  C:0211H         LINE#         224
  C:0214H         LINE#         225
  C:0219H         LINE#         226
  C:021CH         LINE#         227
  C:0221H         LINE#         228
  C:0224H         LINE#         229
  C:0227H         LINE#         230
  C:0232H         LINE#         231
  C:0235H         LINE#         232
  C:023AH         LINE#         233
  C:023DH         LINE#         234
  C:0248H         LINE#         235
  C:024DH         LINE#         236
  C:024DH         LINE#         237
  C:0252H         LINE#         238
  C:0252H         LINE#         239
  C:0257H         LINE#         240
  C:025AH         LINE#         241
  C:025FH         LINE#         242
  C:0262H         LINE#         243
  C:0267H         LINE#         244
  C:026AH         LINE#         245
  C:026FH         LINE#         246
  C:0272H         LINE#         247
  C:0277H         LINE#         248
  C:027AH         LINE#         249
  C:027FH         LINE#         250
  C:0282H         LINE#         251
  C:0285H         LINE#         252
  -------         ENDPROC       AM2320_READDATA
  -------         PROC          _CRC16
  D:0016H         SYMBOL        ptr
  D:0019H         SYMBOL        len
  -------         DO            
  D:001AH         SYMBOL        crc
  D:0004H         SYMBOL        i
  -------         ENDDO         
  C:0355H         LINE#         255
  C:035DH         LINE#         256
  C:035DH         LINE#         257
  C:0363H         LINE#         259
  C:036AH         LINE#         260
  C:037EH         LINE#         261
  C:0389H         LINE#         262
  C:038EH         LINE#         263
BL51 BANKED LINKER/LOCATER V6.22.2.0                                                  06/24/2019  13:46:59  PAGE 8


  C:0399H         LINE#         264
  C:039FH         LINE#         265
  C:03A1H         LINE#         266
  C:03ACH         LINE#         267
  C:03ACH         LINE#         268
  C:03AFH         LINE#         269
  C:03AFH         LINE#         270
  C:03B3H         LINE#         271
  -------         ENDPROC       _CRC16
  -------         PROC          MAIN
  -------         DO            
  D:0004H         SYMBOL        crc
  D:0008H         SYMBOL        sent_temper_val
  D:000FH         SYMBOL        sent_humi_val
  -------         ENDDO         
  C:010EH         LINE#         273
  C:010EH         LINE#         274
  C:010EH         LINE#         279
  C:011BH         LINE#         280
  C:0124H         LINE#         281
  C:012AH         LINE#         282
  C:0130H         LINE#         283
  C:0132H         LINE#         285
  C:0135H         LINE#         288
  C:0135H         LINE#         289
  C:0137H         LINE#         290
  C:0142H         LINE#         291
  C:0145H         LINE#         292
  C:0150H         LINE#         294
  C:0153H         LINE#         297
  C:0155H         LINE#         306
  C:0167H         LINE#         307
  C:016AH         LINE#         308
  C:016DH         LINE#         309
  C:0170H         LINE#         310
  C:0173H         LINE#         311
  C:0176H         LINE#         312
  C:0184H         LINE#         313
  C:0186H         LINE#         314
  C:0189H         LINE#         315
  C:018EH         LINE#         316
  C:0193H         LINE#         317
  C:0198H         LINE#         318
  C:019DH         LINE#         319
  C:01A2H         LINE#         320
  C:01A7H         LINE#         321
  C:01ACH         LINE#         322
  C:01B7H         LINE#         323
  C:01BAH         LINE#         324
  C:01BDH         LINE#         325
  C:01C0H         LINE#         326
  C:01C3H         LINE#         327
  C:01C6H         LINE#         328
  C:01D3H         LINE#         329
  C:01D5H         LINE#         330
  C:01D8H         LINE#         331
  C:01DDH         LINE#         332
BL51 BANKED LINKER/LOCATER V6.22.2.0                                                  06/24/2019  13:46:59  PAGE 9


  C:01E2H         LINE#         333
  C:01E7H         LINE#         334
  C:01ECH         LINE#         335
  C:01F1H         LINE#         336
  C:01F6H         LINE#         337
  C:01FBH         LINE#         338
  C:01FBH         LINE#         346
  C:0206H         LINE#         347
  -------         ENDPROC       MAIN
  -------         ENDMOD        AM2320

  -------         MODULE        PUTCHAR
  C:0000H         SYMBOL        _ICE_DUMMY_
  D:0080H         PUBLIC        P0
  D:0090H         PUBLIC        P1
  D:00A0H         PUBLIC        P2
  D:00B0H         PUBLIC        P3
  D:00D8H         PUBLIC        PWMCON0
  D:00A8H         PUBLIC        IE
  D:00B8H         PUBLIC        IP
  B:0098H.1       PUBLIC        TI
  D:0099H         PUBLIC        SBUF
  D:0098H         PUBLIC        SCON
  D:0088H         PUBLIC        TCON
  D:00F8H         PUBLIC        SCON_1
  D:00E8H         PUBLIC        ADCCON0
  D:00C0H         PUBLIC        I2CON
  D:00C8H         PUBLIC        T2CON
  D:00D0H         PUBLIC        PSW
  C:06F7H         PUBLIC        _putchar
  -------         PROC          _PUTCHAR
  D:0007H         SYMBOL        c
  C:06F7H         LINE#         39
  C:06F7H         LINE#         40
  C:06FAH         LINE#         41
  C:06FCH         LINE#         42
  C:06FEH         LINE#         43
  -------         ENDPROC       _PUTCHAR
  -------         ENDMOD        PUTCHAR

  -------         MODULE        COMMON
  C:0000H         SYMBOL        _ICE_DUMMY_
  D:00B1H         PUBLIC        P0M1
  D:00B3H         PUBLIC        P1M1
  D:00B2H         PUBLIC        P0M2
  D:0080H         PUBLIC        P0
  D:00B4H         PUBLIC        P1M2
  D:0090H         PUBLIC        P1
  D:00A0H         PUBLIC        P2
  D:00B0H         PUBLIC        P3
  D:00D8H         PUBLIC        PWMCON0
  D:00A8H         PUBLIC        IE
  D:00B8H         PUBLIC        IP
  B:0098H.0       PUBLIC        RI
  B:0098H.1       PUBLIC        TI
  B:00F8H.0       PUBLIC        RI_1
  B:00F8H.1       PUBLIC        TI_1
BL51 BANKED LINKER/LOCATER V6.22.2.0                                                  06/24/2019  13:46:59  PAGE 10


  D:0099H         PUBLIC        SBUF
  D:0087H         PUBLIC        PCON
  D:0098H         PUBLIC        SCON
  D:0089H         PUBLIC        TMOD
  D:0088H         PUBLIC        TCON
  D:009AH         PUBLIC        SBUF_1
  D:00F8H         PUBLIC        SCON_1
  D:00C6H         PUBLIC        RH3
  D:008DH         PUBLIC        TH1
  D:00C5H         PUBLIC        RL3
  C:0583H         PUBLIC        _InitialUART0_Timer1
  C:0288H         PUBLIC        _InitialUART0_Timer3
  C:02F1H         PUBLIC        _InitialUART1_Timer3
  B:0088H.6       PUBLIC        TR1
  D:00E8H         PUBLIC        ADCCON0
  C:0707H         PUBLIC        _Send_Data_To_UART0
  C:0717H         PUBLIC        _Send_Data_To_UART1
  D:00C0H         PUBLIC        I2CON
  D:00C8H         PUBLIC        T2CON
  D:00C4H         PUBLIC        T3CON
  C:06FFH         PUBLIC        Receive_Data_From_UART0
  C:070FH         PUBLIC        Receive_Data_From_UART1
  D:008EH         PUBLIC        CKCON
  D:00D0H         PUBLIC        PSW
  -------         PROC          _INITIALUART0_TIMER1
  D:0004H         SYMBOL        u32Baudrate
  C:0583H         LINE#         23
  C:0583H         LINE#         24
  C:0583H         LINE#         25
  C:0589H         LINE#         26
  C:058FH         LINE#         28
  C:0592H         LINE#         29
  C:0595H         LINE#         31
  C:0598H         LINE#         32
  C:059BH         LINE#         33
  C:059EH         LINE#         36
  C:05B7H         LINE#         41
  C:05B9H         LINE#         42
  C:05BBH         LINE#         43
  -------         ENDPROC       _INITIALUART0_TIMER1
  -------         PROC          _INITIALUART0_TIMER3
  D:0016H         SYMBOL        u32Baudrate
  C:0288H         LINE#         45
  C:0290H         LINE#         46
  C:0290H         LINE#         47
  C:0296H         LINE#         48
  C:029CH         LINE#         50
  C:029FH         LINE#         51
  C:02A2H         LINE#         52
  C:02A5H         LINE#         53
  C:02A8H         LINE#         56
  C:02D1H         LINE#         57
  C:02EBH         LINE#         63
  C:02EEH         LINE#         64
  C:02F0H         LINE#         65
  -------         ENDPROC       _INITIALUART0_TIMER3
  -------         PROC          RECEIVE_DATA_FROM_UART0
BL51 BANKED LINKER/LOCATER V6.22.2.0                                                  06/24/2019  13:46:59  PAGE 11


  -------         DO            
  D:0007H         SYMBOL        c
  -------         ENDDO         
  C:06FFH         LINE#         67
  C:06FFH         LINE#         68
  C:06FFH         LINE#         70
  C:0702H         LINE#         71
  C:0704H         LINE#         72
  C:0706H         LINE#         73
  C:0706H         LINE#         74
  -------         ENDPROC       RECEIVE_DATA_FROM_UART0
  -------         PROC          _SEND_DATA_TO_UART0
  D:0007H         SYMBOL        c
  C:0707H         LINE#         76
  C:0707H         LINE#         77
  C:0707H         LINE#         78
  C:0709H         LINE#         79
  C:070BH         LINE#         80
  C:070EH         LINE#         81
  -------         ENDPROC       _SEND_DATA_TO_UART0
  -------         PROC          _INITIALUART1_TIMER3
  D:001CH         SYMBOL        u32Baudrate
  C:02F1H         LINE#         87
  C:02F9H         LINE#         88
  C:02F9H         LINE#         89
  C:02FFH         LINE#         90
  C:0305H         LINE#         92
  C:0308H         LINE#         93
  C:030BH         LINE#         94
  C:030EH         LINE#         97
  C:0337H         LINE#         98
  C:0351H         LINE#         104
  C:0354H         LINE#         105
  -------         ENDPROC       _INITIALUART1_TIMER3
  -------         PROC          RECEIVE_DATA_FROM_UART1
  -------         DO            
  D:0007H         SYMBOL        c
  -------         ENDDO         
  C:070FH         LINE#         107
  C:070FH         LINE#         108
  C:070FH         LINE#         111
  C:0712H         LINE#         112
  C:0714H         LINE#         113
  C:0716H         LINE#         114
  C:0716H         LINE#         115
  -------         ENDPROC       RECEIVE_DATA_FROM_UART1
  -------         PROC          _SEND_DATA_TO_UART1
  D:0007H         SYMBOL        c
  C:0717H         LINE#         117
  C:0717H         LINE#         118
  C:0717H         LINE#         119
  C:0719H         LINE#         120
  C:071BH         LINE#         121
  C:071EH         LINE#         122
  -------         ENDPROC       _SEND_DATA_TO_UART1
  -------         ENDMOD        COMMON

BL51 BANKED LINKER/LOCATER V6.22.2.0                                                  06/24/2019  13:46:59  PAGE 12


  -------         MODULE        DELAY
  C:0000H         SYMBOL        _ICE_DUMMY_
  D:0080H         PUBLIC        P0
  D:0090H         PUBLIC        P1
  D:00A0H         PUBLIC        P2
  C:04A2H         PUBLIC        _Timer0_Delay100us
  D:00B0H         PUBLIC        P3
  D:00D8H         PUBLIC        PWMCON0
  C:0454H         PUBLIC        _Timer2_Delay500us
  D:00A8H         PUBLIC        IE
  D:00B8H         PUBLIC        IP
  C:04EDH         PUBLIC        _Timer0_Delay1ms
  B:0020H.1       PUBLIC        BIT_TMP
  D:0098H         PUBLIC        SCON
  D:0089H         PUBLIC        TMOD
  D:0088H         PUBLIC        TCON
  D:00F8H         PUBLIC        SCON_1
  B:0088H.5       PUBLIC        TF0
  C:0538H         PUBLIC        _Timer1_Delay10ms
  B:0088H.7       PUBLIC        TF1
  B:00C8H.7       PUBLIC        TF2
  D:008CH         PUBLIC        TH0
  D:00C6H         PUBLIC        RH3
  D:008DH         PUBLIC        TH1
  D:00CDH         PUBLIC        TH2
  D:008AH         PUBLIC        TL0
  D:00C5H         PUBLIC        RL3
  D:008BH         PUBLIC        TL1
  D:00CCH         PUBLIC        TL2
  C:0404H         PUBLIC        _Timer3_Delay10us
  B:0088H.4       PUBLIC        TR0
  B:0088H.6       PUBLIC        TR1
  B:00C8H.2       PUBLIC        TR2
  D:00E8H         PUBLIC        ADCCON0
  D:00C0H         PUBLIC        I2CON
  D:00C9H         PUBLIC        T2MOD
  D:00C8H         PUBLIC        T2CON
  D:00C4H         PUBLIC        T3CON
  D:008EH         PUBLIC        CKCON
  D:00D0H         PUBLIC        PSW
  C:03B4H         PUBLIC        _Timer3_Delay100ms
  -------         PROC          _TIMER0_DELAY100US
  D:0016H         SYMBOL        u32CNT
  C:04A2H         LINE#         22
  C:04AAH         LINE#         23
  C:04AAH         LINE#         24
  C:04ADH         LINE#         25
  C:04B0H         LINE#         26
  C:04B2H         LINE#         27
  C:04C5H         LINE#         28
  C:04C5H         LINE#         29
  C:04C8H         LINE#         30
  C:04CBH         LINE#         31
  C:04CEH         LINE#         32
  C:04D0H         LINE#         33
  C:04E8H         LINE#         34
  C:04EAH         LINE#         35
BL51 BANKED LINKER/LOCATER V6.22.2.0                                                  06/24/2019  13:46:59  PAGE 13


  C:04ECH         LINE#         36
  -------         ENDPROC       _TIMER0_DELAY100US
  -------         PROC          _TIMER0_DELAY1MS
  D:0016H         SYMBOL        u32CNT
  C:04EDH         LINE#         38
  C:04F5H         LINE#         39
  C:04F5H         LINE#         40
  C:04F8H         LINE#         41
  C:04FBH         LINE#         42
  C:04FDH         LINE#         43
  C:0510H         LINE#         44
  C:0510H         LINE#         45
  C:0513H         LINE#         46
  C:0516H         LINE#         47
  C:0519H         LINE#         48
  C:051BH         LINE#         49
  C:0533H         LINE#         50
  C:0535H         LINE#         51
  C:0537H         LINE#         52
  -------         ENDPROC       _TIMER0_DELAY1MS
  -------         PROC          _TIMER1_DELAY10MS
  D:002BH         SYMBOL        u32CNT
  C:0538H         LINE#         55
  C:0540H         LINE#         56
  C:0540H         LINE#         57
  C:0543H         LINE#         58
  C:0546H         LINE#         59
  C:0548H         LINE#         60
  C:055BH         LINE#         61
  C:055BH         LINE#         62
  C:055EH         LINE#         63
  C:0561H         LINE#         64
  C:0564H         LINE#         65
  C:0566H         LINE#         66
  C:057EH         LINE#         67
  C:0580H         LINE#         68
  C:0582H         LINE#         69
  -------         ENDPROC       _TIMER1_DELAY10MS
  -------         PROC          _TIMER2_DELAY500US
  D:002FH         SYMBOL        u32CNT
  C:0454H         LINE#         71
  C:045CH         LINE#         72
  C:045CH         LINE#         73
  C:045FH         LINE#         74
  C:0462H         LINE#         75
  C:0465H         LINE#         76
  C:0467H         LINE#         77
  C:047AH         LINE#         78
  C:047AH         LINE#         79
  C:047DH         LINE#         80
  C:0480H         LINE#         81
  C:0483H         LINE#         82
  C:0485H         LINE#         83
  C:049DH         LINE#         84
  C:049FH         LINE#         85
  C:04A1H         LINE#         86
  -------         ENDPROC       _TIMER2_DELAY500US
BL51 BANKED LINKER/LOCATER V6.22.2.0                                                  06/24/2019  13:46:59  PAGE 14


  -------         PROC          _TIMER3_DELAY100MS
  D:0033H         SYMBOL        u32CNT
  C:03B4H         LINE#         88
  C:03BCH         LINE#         89
  C:03BCH         LINE#         90
  C:03BFH         LINE#         91
  C:03C2H         LINE#         92
  C:03D5H         LINE#         93
  C:03D5H         LINE#         94
  C:03D8H         LINE#         95
  C:03DBH         LINE#         96
  C:03E3H         LINE#         97
  C:03E6H         LINE#         98
  C:03FEH         LINE#         99
  C:0400H         LINE#         100
  C:0403H         LINE#         101
  -------         ENDPROC       _TIMER3_DELAY100MS
  -------         PROC          _TIMER3_DELAY10US
  D:0037H         SYMBOL        u32CNT
  C:0404H         LINE#         103
  C:040CH         LINE#         104
  C:040CH         LINE#         105
  C:040FH         LINE#         106
  C:0412H         LINE#         107
  C:0425H         LINE#         108
  C:0425H         LINE#         109
  C:0428H         LINE#         110
  C:042BH         LINE#         111
  C:0433H         LINE#         112
  C:0436H         LINE#         113
  C:044EH         LINE#         114
  C:0450H         LINE#         115
  C:0453H         LINE#         116
  -------         ENDPROC       _TIMER3_DELAY10US
  -------         ENDMOD        DELAY

  -------         MODULE        ?C_STARTUP
  C:061DH         SEGMENT       ?C_C51STARTUP
  I:003BH         SEGMENT       ?STACK
  C:0000H         PUBLIC        ?C_STARTUP
  D:00E0H         SYMBOL        ACC
  D:00F0H         SYMBOL        B
  D:0083H         SYMBOL        DPH
  D:0082H         SYMBOL        DPL
  N:0000H         SYMBOL        IBPSTACK
  N:0100H         SYMBOL        IBPSTACKTOP
  N:0080H         SYMBOL        IDATALEN
  C:0632H         SYMBOL        IDATALOOP
  N:0000H         SYMBOL        PBPSTACK
  N:0000H         SYMBOL        PBPSTACKTOP
  N:0000H         SYMBOL        PDATALEN
  N:0000H         SYMBOL        PDATASTART
  N:0000H         SYMBOL        PPAGE
  N:0000H         SYMBOL        PPAGEENABLE
  D:00A0H         SYMBOL        PPAGE_SFR
  D:0081H         SYMBOL        SP
  C:061DH         SYMBOL        STARTUP1
BL51 BANKED LINKER/LOCATER V6.22.2.0                                                  06/24/2019  13:46:59  PAGE 15


  N:0000H         SYMBOL        XBPSTACK
  N:0000H         SYMBOL        XBPSTACKTOP
  N:02FFH         SYMBOL        XDATALEN
  C:063DH         SYMBOL        XDATALOOP
  N:0000H         SYMBOL        XDATASTART
  C:0000H         LINE#         94
  C:061DH         LINE#         100
  C:0620H         LINE#         101
  C:0623H         LINE#         102
  C:0626H         LINE#         104
  C:0629H         LINE#         105
  C:062CH         LINE#         106
  C:062FH         LINE#         109
  C:0631H         LINE#         110
  C:0632H         LINE#         111
  C:0633H         LINE#         112
  C:0635H         LINE#         116
  C:0638H         LINE#         117
  C:063AH         LINE#         119
  C:063CH         LINE#         123
  C:063DH         LINE#         124
  C:063EH         LINE#         125
  C:063FH         LINE#         126
  C:0641H         LINE#         127
  C:0643H         LINE#         161
  C:0646H         LINE#         165
  -------         ENDMOD        ?C_STARTUP

  -------         MODULE        ?C?CLDPTR
  C:0003H         PUBLIC        ?C?CLDPTR
  -------         ENDMOD        ?C?CLDPTR

  -------         MODULE        ?C?ULDIV
  C:0058H         PUBLIC        ?C?ULDIV
  -------         ENDMOD        ?C?ULDIV

  -------         MODULE        ?C?ULCMP
  C:00EAH         PUBLIC        ?C?ULCMP
  -------         ENDMOD        ?C?ULCMP

  -------         MODULE        ?C?ULSHR
  C:00FBH         PUBLIC        ?C?ULSHR
  -------         ENDMOD        ?C?ULSHR

Program Size: data=59.2 xdata=0 code=1823
LINK/LOCATE RUN COMPLETE.  0 WARNING(S),  0 ERROR(S)
