:1006BA0043B30843B40843B31043B410D294D2935B
:0106CA00220D
:0B067100ED25E0FD7F0412067CD29313
:10067C00E4FEEEC39F5010000000000000000000DC
:07068C00000000000E80EBEE
:010693002244
:1006CB00D293D2947F0412067CC29412067CC293FE
:0106DB0022FC
:0A06ED00C294120675D29402067C36
:10069400C294120675C2937F0112067CD2947F0421
:0306A40002067CCF
:1006A700D294120675C2937F0112067CD2947F04FE
:0306B70002067CBC
:0805BC001206CB7FB8120649BC
:1005C400E4FDD29443B31053B4EF7F0412067CD2FB
:1005D4009330940B0DEDD394FA7480948040F27FA1
:0C05E4000412067CC29343B31043B41011
:0105F00022E8
:02064900AD07FB
:10064B00E4FCECC39408748094805019ED5480C47E
:10065B0013131354016004D2948002C294120671D6
:05066B00C2930C80DDCC
:010670002267
:0305F1001206945B
:1005F40043B31053B4EFE4FCECC3940874809480C8
:10060400500E120671C293A294E43342050C80E8A2
:0806140043B31043B410AF051D
:01061C0022BB
:1006DC001205BC7F017E007D007C001204ED020639
:0106EC00ED20
:100209001205BC7F031206491205C4E4FF12064910
:100219001205C47F041206491205C41206ED7F02B5
:100229007E007D007C001204ED1206CB7FB9120618
:10023900491205C47F017E007D007C001204A212D0
:1002490005F48F211205F18F221205F18F23120671
:10025900941205F48F241206941205F48F251206C0
:10026900941205F48F261206941205F48F271206AC
:0F027900941205F48F281206A71206ED020694C0
:080355008B168A1789188D1917
:10035D0074FFF51AF51BAF191519EF6045AB1605AE
:10036D0018E518AA177002051714F9120003621B7D
:10037D00E4FCECC394087480948050DAE51B30E003
:10038D0013E51AC313F51AE51B13F51B631B016364
:10039D001AA0800BE51AC313F51AE51B13F51B0CF8
:0603AD0080D0AE1AAF1B68
:0103B3002227
:10010E00E4F5B1F5B2F5B3F5B4F5ACF5AD7F807E9F
:10011E0025FDFC12028853B3FB43B40453B1DF43F5
:10012E00B220D2851206BAC2927FF47E017D007C87
:10013E00001204ED1206DC7F017E007D007C0012B1
:10014E0004ED120209D292E521640360030201FB61
:10015E00E522640460030201FB750802750903754C
:10016E000A0285250B85260CFB7A0079087D05127F
:10017E000355AD07AC068C0DEFF50EAF0812070751
:10018E00AF09120707AF0A120707AF0B120707AF27
:10019E000C120707AF0D120707AF0E1207077FE805
:1001AE007E037D007C001204ED750F037510037540
:1001BE0011028523128524137B007A00790F7D05A9
:1001CE00120355AC068C14EFF515AF0F120707AFDF
:1001DE0010120707AF11120707AF12120707AF135E
:1001EE00120707AF14120707AF151207077F887E95
:0B01FE00137D007C001204ED020135AF
:0806F7003099FDC2998F992290
:1005830053B1BF53B2BF53B17F53B27F759850433A
:100593008920438780438E1053C4DFAB07AA06A983
:1005A30005A8047F407E427D0F7C00120058EF04B3
:0905B300F404F58DD28ED29922D8
:100288008F198E188D178C1653B1BF53B2BF53B147
:100298007F53B27F75985043878053C4F843C42076
:1002A800AB19AA18A917A8167F407E427D0F7C00BB
:1002B800120058C374FF9FFF74FF9EFEE49DFDE487
:1002C8009CFC78081200FB8FC6AB19AA18A917A8BE
:1002D800167F407E427D0F7C00120058C374FF9F3A
:0902E800FF8FC543C408D299221E
:0706FF003098FDAF99C2988D
:0107060022D0
:08070700C2998F993099FD227F
:1002F1008F1F8E1E8D1D8C1C53B1FB53B2FB53B34C
:10030100BF53B4BF75F85075C40853C4DFAB1FAAFF
:100311001EA91DA81C7F407E427D0F7C0012005843
:10032100C374FF9FFF74FF9EFEE49DFDE49CFC7877
:10033100081200FB8FC6AB1FAA1EA91DA81C7F4077
:100341007E427D0F7C00120058C374FF9FFF8FC552
:0403510043C4082277
:07070F0030F8FDAF9AC2F8BB
:0107160022C0
:08071700C2F98F9A30F9FD22AE
:1004A2008F198E188D178C16538EF7438901D28CB3
:1004B200E4FFFEFDFCAB19AA18A917A816C3120087
:1004C200EA6025758A7E758CFF308DFDC28DE51937
:1004D20024FFF519E51834FFF518E51734FFF51771
:0B04E200E51634FFF51680C8C28C221E
:1004ED008F198E188D178C16538EF7438901D28C68
:1004FD00E4FFFEFDFCAB19AA18A917A816C312003C
:10050D00EA6025758ACA758CFA308DFDC28DE519A4
:10051D0024FFF519E51834FFF518E51734FFF51725
:0B052D00E51634FFF51680C8C28C22D2
:100538008F2E8E2D8D2C8C2B538EEF438910D28EBF
:10054800E4FFFEFDFCAB2EAA2DA92CA82BC312009C
:10055800EA6025758BEA758DCB308FFDC28FE52E4D
:1005680024FFF52EE52D34FFF52DE52C34FFF52C71
:0B057800E52B34FFF52B80C8C28E225B
:100454008F328E318D308C2F53C9BF53C9DF43C9BE
:1004640010D2CAE4FFFEFDFCAB32AA31A930A82F9A
:10047400C31200EA602575CC3075CDF830CFFDC2CB
:10048400CFE53224FFF532E53134FFF531E5303480
:0E049400FFF530E52F34FFF52F80C8C2CA22D5
:1003B4008F368E358D348C3375C40743C408E4FFFF
:1003C400FEFDFCAB36AA35A934A833C31200EA609B
:1003D4002B75C52C75C6CFE5C45410641070F85342
:1003E400C4EFE53624FFF536E53534FFF535E5345D
:1003F40034FFF534E53334FFF53380C253C4F722B8
:100404008F3A8E398D388C3775C40743C408E4FF9E
:10041400FEFDFCAB3AAA39A938A837C31200EA603A
:100424002B75C5D875C6FFE5C45410641070F85315
:10043400C4EFE53A24FFF53AE53934FFF539E538F8
:1004440034FFF538E53734FFF53780C253C4F7225B
:0300000002061DD8
:10061D0075C7AA75C75575FD5A75C7AA75C755759E
:10062D00FDA5787FE4F6D8FD9000007FFF7E03E402
:0C063D00F0A3DFFCDEFA75813A02010E2A
:10000300BB010689828A83E0225002E722BBFE02FB
:09001300E32289828A83E493222E
:10001C0075F008758200EF2FFFEE33FECD33CDCC9B
:10002C0033CCC58233C5829BED9AEC99E58298401E
:10003C000CF582EE9BFEED9AFDEC99FC0FD5F0D6FB
:10004C00E4CEFBE4CDFAE4CCF9A88222B800C1B925
:10005C000059BA002DEC8BF084CFCECDFCE5F0CB63
:10006C00F97818EF2FFFEE33FEED33FDEC33FCEB9C
:10007C0033FB10D703994004EB99FB0FD8E5E4F957
:10008C00FA227818EF2FFFEE33FEED33FDEC33FC44
:10009C00C933C910D7059BE99A4007EC9BFCE99A38
:1000AC00F90FD8E0E4C9FAE4CCFB2275F010EF2F7D
:1000BC00FFEE33FEED33FDCC33CCC833C810D7077D
:1000CC009BEC9AE899400AED9BFDEC9AFCE899F8B8
:0E00DC000FD5F0DAE4CDFBE4CCFAE4C8F9224B
:1000EA00EB9FF5F0EA9E42F0E99D42F0E89C45F06C
:0100FA0022E3
:1000FB00E8600FECC313FCED13FDEE13FEEF13FFE3
:03010B00D8F12206
:00000001FF
